{
  "contractName": "EternalStorage",
  "abi": [
    {
      "constant": true,
      "inputs": [],
      "name": "name",
      "outputs": [
        {
          "name": "",
          "type": "string"
        }
      ],
      "payable": false,
      "stateMutability": "view",
      "type": "function"
    },
    {
      "constant": true,
      "inputs": [
        {
          "name": "_tokenId",
          "type": "uint256"
        }
      ],
      "name": "getApproved",
      "outputs": [
        {
          "name": "",
          "type": "address"
        }
      ],
      "payable": false,
      "stateMutability": "view",
      "type": "function"
    },
    {
      "constant": false,
      "inputs": [
        {
          "name": "_to",
          "type": "address"
        },
        {
          "name": "_tokenId",
          "type": "uint256"
        }
      ],
      "name": "approve",
      "outputs": [],
      "payable": false,
      "stateMutability": "nonpayable",
      "type": "function"
    },
    {
      "constant": true,
      "inputs": [],
      "name": "totalSupply",
      "outputs": [
        {
          "name": "",
          "type": "uint256"
        }
      ],
      "payable": false,
      "stateMutability": "view",
      "type": "function"
    },
    {
      "constant": false,
      "inputs": [
        {
          "name": "_from",
          "type": "address"
        },
        {
          "name": "_to",
          "type": "address"
        },
        {
          "name": "_tokenId",
          "type": "uint256"
        }
      ],
      "name": "transferFrom",
      "outputs": [],
      "payable": false,
      "stateMutability": "nonpayable",
      "type": "function"
    },
    {
      "constant": true,
      "inputs": [
        {
          "name": "_owner",
          "type": "address"
        },
        {
          "name": "_index",
          "type": "uint256"
        }
      ],
      "name": "tokenOfOwnerByIndex",
      "outputs": [
        {
          "name": "",
          "type": "uint256"
        }
      ],
      "payable": false,
      "stateMutability": "view",
      "type": "function"
    },
    {
      "constant": false,
      "inputs": [
        {
          "name": "_from",
          "type": "address"
        },
        {
          "name": "_to",
          "type": "address"
        },
        {
          "name": "_tokenId",
          "type": "uint256"
        }
      ],
      "name": "safeTransferFrom",
      "outputs": [],
      "payable": false,
      "stateMutability": "nonpayable",
      "type": "function"
    },
    {
      "constant": true,
      "inputs": [
        {
          "name": "_tokenId",
          "type": "uint256"
        }
      ],
      "name": "exists",
      "outputs": [
        {
          "name": "",
          "type": "bool"
        }
      ],
      "payable": false,
      "stateMutability": "view",
      "type": "function"
    },
    {
      "constant": true,
      "inputs": [
        {
          "name": "_index",
          "type": "uint256"
        }
      ],
      "name": "tokenByIndex",
      "outputs": [
        {
          "name": "",
          "type": "uint256"
        }
      ],
      "payable": false,
      "stateMutability": "view",
      "type": "function"
    },
    {
      "constant": true,
      "inputs": [
        {
          "name": "_tokenId",
          "type": "uint256"
        }
      ],
      "name": "ownerOf",
      "outputs": [
        {
          "name": "",
          "type": "address"
        }
      ],
      "payable": false,
      "stateMutability": "view",
      "type": "function"
    },
    {
      "constant": true,
      "inputs": [
        {
          "name": "",
          "type": "uint256"
        }
      ],
      "name": "gamesIdToGamePrice",
      "outputs": [
        {
          "name": "",
          "type": "uint256"
        }
      ],
      "payable": false,
      "stateMutability": "view",
      "type": "function"
    },
    {
      "constant": true,
      "inputs": [
        {
          "name": "_owner",
          "type": "address"
        }
      ],
      "name": "balanceOf",
      "outputs": [
        {
          "name": "",
          "type": "uint256"
        }
      ],
      "payable": false,
      "stateMutability": "view",
      "type": "function"
    },
    {
      "constant": true,
      "inputs": [],
      "name": "owner",
      "outputs": [
        {
          "name": "",
          "type": "address"
        }
      ],
      "payable": false,
      "stateMutability": "view",
      "type": "function"
    },
    {
      "constant": true,
      "inputs": [],
      "name": "symbol",
      "outputs": [
        {
          "name": "",
          "type": "string"
        }
      ],
      "payable": false,
      "stateMutability": "view",
      "type": "function"
    },
    {
      "constant": true,
      "inputs": [],
      "name": "tokenIdCounter",
      "outputs": [
        {
          "name": "",
          "type": "uint256"
        }
      ],
      "payable": false,
      "stateMutability": "view",
      "type": "function"
    },
    {
      "constant": false,
      "inputs": [
        {
          "name": "_to",
          "type": "address"
        },
        {
          "name": "_approved",
          "type": "bool"
        }
      ],
      "name": "setApprovalForAll",
      "outputs": [],
      "payable": false,
      "stateMutability": "nonpayable",
      "type": "function"
    },
    {
      "constant": true,
      "inputs": [],
      "name": "orderCounter",
      "outputs": [
        {
          "name": "",
          "type": "uint256"
        }
      ],
      "payable": false,
      "stateMutability": "view",
      "type": "function"
    },
    {
      "constant": false,
      "inputs": [
        {
          "name": "_from",
          "type": "address"
        },
        {
          "name": "_to",
          "type": "address"
        },
        {
          "name": "_tokenId",
          "type": "uint256"
        },
        {
          "name": "_data",
          "type": "bytes"
        }
      ],
      "name": "safeTransferFrom",
      "outputs": [],
      "payable": false,
      "stateMutability": "nonpayable",
      "type": "function"
    },
    {
      "constant": true,
      "inputs": [
        {
          "name": "_tokenId",
          "type": "uint256"
        }
      ],
      "name": "tokenURI",
      "outputs": [
        {
          "name": "",
          "type": "string"
        }
      ],
      "payable": false,
      "stateMutability": "view",
      "type": "function"
    },
    {
      "constant": true,
      "inputs": [
        {
          "name": "_owner",
          "type": "address"
        },
        {
          "name": "_operator",
          "type": "address"
        }
      ],
      "name": "isApprovedForAll",
      "outputs": [
        {
          "name": "",
          "type": "bool"
        }
      ],
      "payable": false,
      "stateMutability": "view",
      "type": "function"
    },
    {
      "constant": false,
      "inputs": [
        {
          "name": "newOwner",
          "type": "address"
        }
      ],
      "name": "transferOwnership",
      "outputs": [],
      "payable": false,
      "stateMutability": "nonpayable",
      "type": "function"
    },
    {
      "anonymous": false,
      "inputs": [
        {
          "indexed": true,
          "name": "_from",
          "type": "address"
        },
        {
          "indexed": true,
          "name": "_to",
          "type": "address"
        },
        {
          "indexed": false,
          "name": "_tokenId",
          "type": "uint256"
        }
      ],
      "name": "Transfer",
      "type": "event"
    },
    {
      "anonymous": false,
      "inputs": [
        {
          "indexed": true,
          "name": "_owner",
          "type": "address"
        },
        {
          "indexed": true,
          "name": "_approved",
          "type": "address"
        },
        {
          "indexed": false,
          "name": "_tokenId",
          "type": "uint256"
        }
      ],
      "name": "Approval",
      "type": "event"
    },
    {
      "anonymous": false,
      "inputs": [
        {
          "indexed": true,
          "name": "_owner",
          "type": "address"
        },
        {
          "indexed": true,
          "name": "_operator",
          "type": "address"
        },
        {
          "indexed": false,
          "name": "_approved",
          "type": "bool"
        }
      ],
      "name": "ApprovalForAll",
      "type": "event"
    },
    {
      "anonymous": false,
      "inputs": [
        {
          "indexed": true,
          "name": "previousOwner",
          "type": "address"
        },
        {
          "indexed": true,
          "name": "newOwner",
          "type": "address"
        }
      ],
      "name": "OwnershipTransferred",
      "type": "event"
    },
    {
      "constant": false,
      "inputs": [
        {
          "name": "_newAddress",
          "type": "address"
        }
      ],
      "name": "setCurrentTpAddress",
      "outputs": [],
      "payable": false,
      "stateMutability": "nonpayable",
      "type": "function"
    },
    {
      "constant": true,
      "inputs": [],
      "name": "getTokenIdCounter",
      "outputs": [
        {
          "name": "",
          "type": "uint256"
        }
      ],
      "payable": false,
      "stateMutability": "view",
      "type": "function"
    },
    {
      "constant": true,
      "inputs": [],
      "name": "getOrderCounter",
      "outputs": [
        {
          "name": "",
          "type": "uint256"
        }
      ],
      "payable": false,
      "stateMutability": "view",
      "type": "function"
    },
    {
      "constant": false,
      "inputs": [
        {
          "name": "_gamesId",
          "type": "uint256"
        },
        {
          "name": "_gamePrice",
          "type": "uint256"
        }
      ],
      "name": "setGamesIdToGamePrice",
      "outputs": [],
      "payable": false,
      "stateMutability": "nonpayable",
      "type": "function"
    },
    {
      "constant": true,
      "inputs": [
        {
          "name": "_gamesId",
          "type": "uint256"
        }
      ],
      "name": "getGamesIdToGamePrice",
      "outputs": [
        {
          "name": "",
          "type": "uint256"
        }
      ],
      "payable": false,
      "stateMutability": "view",
      "type": "function"
    },
    {
      "constant": true,
      "inputs": [
        {
          "name": "_orderIndex",
          "type": "uint256"
        }
      ],
      "name": "getPendingOrders",
      "outputs": [
        {
          "name": "",
          "type": "address"
        },
        {
          "name": "",
          "type": "uint256"
        }
      ],
      "payable": false,
      "stateMutability": "view",
      "type": "function"
    },
    {
      "constant": false,
      "inputs": [
        {
          "name": "_buyer",
          "type": "address"
        },
        {
          "name": "_gamesId",
          "type": "uint256"
        }
      ],
      "name": "setPendingOrder",
      "outputs": [],
      "payable": false,
      "stateMutability": "nonpayable",
      "type": "function"
    },
    {
      "constant": false,
      "inputs": [
        {
          "name": "_owner",
          "type": "address"
        },
        {
          "name": "_index",
          "type": "uint256"
        },
        {
          "name": "_gamesIds",
          "type": "uint256"
        }
      ],
      "name": "setOwnerToGamesIds",
      "outputs": [],
      "payable": false,
      "stateMutability": "nonpayable",
      "type": "function"
    },
    {
      "constant": true,
      "inputs": [
        {
          "name": "_owner",
          "type": "address"
        }
      ],
      "name": "getOwnerToGamesIds",
      "outputs": [
        {
          "name": "",
          "type": "uint256[]"
        }
      ],
      "payable": false,
      "stateMutability": "view",
      "type": "function"
    },
    {
      "constant": false,
      "inputs": [
        {
          "name": "_owner",
          "type": "address"
        },
        {
          "name": "_gamesId",
          "type": "uint256"
        }
      ],
      "name": "pushOwnerToGamesIds",
      "outputs": [],
      "payable": false,
      "stateMutability": "nonpayable",
      "type": "function"
    },
    {
      "constant": true,
      "inputs": [
        {
          "name": "_gamesId",
          "type": "uint256"
        }
      ],
      "name": "getGamesIdIndex",
      "outputs": [
        {
          "name": "",
          "type": "uint256"
        }
      ],
      "payable": false,
      "stateMutability": "view",
      "type": "function"
    },
    {
      "constant": false,
      "inputs": [
        {
          "name": "_gamesId",
          "type": "uint256"
        },
        {
          "name": "_index",
          "type": "uint256"
        }
      ],
      "name": "setGamesIdIndex",
      "outputs": [],
      "payable": false,
      "stateMutability": "nonpayable",
      "type": "function"
    },
    {
      "constant": true,
      "inputs": [
        {
          "name": "_gamesId",
          "type": "uint256"
        }
      ],
      "name": "getGamesIdToOwnerAddress",
      "outputs": [
        {
          "name": "",
          "type": "address"
        }
      ],
      "payable": false,
      "stateMutability": "view",
      "type": "function"
    },
    {
      "constant": false,
      "inputs": [
        {
          "name": "_gamesId",
          "type": "uint256"
        },
        {
          "name": "_gameOwner",
          "type": "address"
        }
      ],
      "name": "setGamesIdToOwnerAddress",
      "outputs": [],
      "payable": false,
      "stateMutability": "nonpayable",
      "type": "function"
    },
    {
      "constant": true,
      "inputs": [
        {
          "name": "_gamesId",
          "type": "uint256"
        }
      ],
      "name": "getGamesIdToTokensId",
      "outputs": [
        {
          "name": "",
          "type": "uint256[]"
        }
      ],
      "payable": false,
      "stateMutability": "view",
      "type": "function"
    },
    {
      "constant": false,
      "inputs": [
        {
          "name": "_gamesId",
          "type": "uint256"
        },
        {
          "name": "_index",
          "type": "uint256"
        },
        {
          "name": "_tokensId",
          "type": "uint256"
        }
      ],
      "name": "setGamesIdToTokensId",
      "outputs": [],
      "payable": false,
      "stateMutability": "nonpayable",
      "type": "function"
    },
    {
      "constant": false,
      "inputs": [
        {
          "name": "_gamesId",
          "type": "uint256"
        },
        {
          "name": "_tokenId",
          "type": "uint256"
        }
      ],
      "name": "pushGamesIdToTokensId",
      "outputs": [],
      "payable": false,
      "stateMutability": "nonpayable",
      "type": "function"
    },
    {
      "constant": true,
      "inputs": [
        {
          "name": "_tokenId",
          "type": "uint256"
        }
      ],
      "name": "getTokensIdToTokensIdIndex",
      "outputs": [
        {
          "name": "",
          "type": "uint256"
        }
      ],
      "payable": false,
      "stateMutability": "view",
      "type": "function"
    },
    {
      "constant": false,
      "inputs": [
        {
          "name": "_tokenId",
          "type": "uint256"
        },
        {
          "name": "_index",
          "type": "uint256"
        }
      ],
      "name": "setTokensIdToTokensIdIndex",
      "outputs": [],
      "payable": false,
      "stateMutability": "nonpayable",
      "type": "function"
    },
    {
      "constant": true,
      "inputs": [
        {
          "name": "_tokenId",
          "type": "uint256"
        }
      ],
      "name": "getTokensIdToGamesId",
      "outputs": [
        {
          "name": "",
          "type": "uint256"
        }
      ],
      "payable": false,
      "stateMutability": "view",
      "type": "function"
    },
    {
      "constant": false,
      "inputs": [
        {
          "name": "_tokenId",
          "type": "uint256"
        },
        {
          "name": "_gamesId",
          "type": "uint256"
        }
      ],
      "name": "setTokensIdToGamesId",
      "outputs": [],
      "payable": false,
      "stateMutability": "nonpayable",
      "type": "function"
    },
    {
      "constant": false,
      "inputs": [
        {
          "name": "_orderId",
          "type": "uint256"
        },
        {
          "name": "_tokensId",
          "type": "uint256"
        }
      ],
      "name": "saveGameOrder",
      "outputs": [],
      "payable": false,
      "stateMutability": "nonpayable",
      "type": "function"
    },
    {
      "constant": false,
      "inputs": [
        {
          "name": "_gamesId",
          "type": "uint256"
        },
        {
          "name": "_tokensId",
          "type": "uint256"
        }
      ],
      "name": "saveBurnGame",
      "outputs": [],
      "payable": false,
      "stateMutability": "nonpayable",
      "type": "function"
    }
  ],
  "bytecode": "0x601160808181527f546f6b656e506c6179526567697374727900000000000000000000000000000060a0908152610100604052600360c09081527f545052000000000000000000000000000000000000000000000000000000000060e05260008054600160a060020a0319163317905591926200007f916005916200009e565b508051620000959060069060208401906200009e565b50505062000143565b828054600181600116156101000203166002900490600052602060002090601f016020900481019282601f10620000e157805160ff191683800117855562000111565b8280016001018555821562000111579182015b8281111562000111578251825591602001919060010190620000f4565b506200011f92915062000123565b5090565b6200014091905b808211156200011f57600081556001016200012a565b90565b611e3b80620001536000396000f3006080604052600436106102195763ffffffff7c010000000000000000000000000000000000000000000000000000000060003504166306fdde03811461021e57806307e14091146102a8578063081812fc146102d2578063095ea7b31461030657806312085d551461032c57806317f08c3c1461034d57806318160ddd1461037157806323b872dd146103865780632f745c59146103b057806342842e0e146103d45780634f558e79146103fe5780634f6ccce71461042a5780635998fc63146104425780636352211e1461045d5780636390b9cc146104755780636a71a959146104995780636f0f37a7146104b457806370a08231146104cc5780637383ef76146104ed578063758c290914610508578063778ebc751461054357806379cf1d6d1461055b5780637a55ee881461057657806386c4cc2d1461058e5780638da5cb5b146105a957806395d89b41146105be578063961dd094146105d357806398bdf6f51461063b578063a05b7b6f14610650578063a22cb46514610668578063b629a26a1461068e578063b7434bac146106a3578063b789bf52146106c1578063b88d4fde146106d6578063bb8d8b1614610745578063c87b56dd14610760578063d122d20114610778578063d918348614610790578063dbfd4b98146107ab578063dc728f76146107c0578063dd5d8393146107e4578063e960ab7e14610805578063e985e9c51461082c578063f2fde38b14610853575b600080fd5b34801561022a57600080fd5b50610233610874565b6040805160208082528351818301528351919283929083019185019080838360005b8381101561026d578181015183820152602001610255565b50505050905090810190601f16801561029a5780820380516001836020036101000a031916815260200191505b509250505060405180910390f35b3480156102b457600080fd5b506102c060043561090b565b60408051918252519081900360200190f35b3480156102de57600080fd5b506102ea60043561091d565b60408051600160a060020a039092168252519081900360200190f35b34801561031257600080fd5b5061032a600160a060020a0360043516602435610938565b005b34801561033857600080fd5b5061032a600160a060020a0360043516610a1d565b34801561035957600080fd5b5061032a600435600160a060020a0360243516610a6d565b34801561037d57600080fd5b506102c0610ac9565b34801561039257600080fd5b5061032a600160a060020a0360043581169060243516604435610acf565b3480156103bc57600080fd5b506102c0600160a060020a0360043516602435610b7e565b3480156103e057600080fd5b5061032a600160a060020a0360043581169060243516604435610bcb565b34801561040a57600080fd5b50610416600435610c03565b604080519115158252519081900360200190f35b34801561043657600080fd5b506102c0600435610c20565b34801561044e57600080fd5b5061032a600435602435610c55565b34801561046957600080fd5b506102ea600435610c95565b34801561048157600080fd5b5061032a600160a060020a0360043516602435610cb0565b3480156104a557600080fd5b5061032a600435602435610d31565b3480156104c057600080fd5b506102c0600435610d71565b3480156104d857600080fd5b506102c0600160a060020a0360043516610d83565b3480156104f957600080fd5b5061032a600435602435610db6565b34801561051457600080fd5b50610520600435610df6565b60408051600160a060020a03909316835260208301919091528051918290030190f35b34801561054f57600080fd5b506102c0600435610e1a565b34801561056757600080fd5b5061032a600435602435610e2c565b34801561058257600080fd5b506102c0600435610f9b565b34801561059a57600080fd5b5061032a600435602435610fad565b3480156105b557600080fd5b506102ea610fed565b3480156105ca57600080fd5b50610233610ffc565b3480156105df57600080fd5b506105eb60043561105d565b60408051602080825283518183015283519192839290830191858101910280838360005b8381101561062757818101518382015260200161060f565b505050509050019250505060405180910390f35b34801561064757600080fd5b506102c06110bf565b34801561065c57600080fd5b506102ea6004356110c5565b34801561067457600080fd5b5061032a600160a060020a036004351660243515156110e0565b34801561069a57600080fd5b506102c0611164565b3480156106af57600080fd5b5061032a60043560243560443561116a565b3480156106cd57600080fd5b506102c06111c6565b3480156106e257600080fd5b50604080516020601f60643560048181013592830184900484028501840190955281845261032a94600160a060020a0381358116956024803590921695604435953695608494019181908401838280828437509497506111cc9650505050505050565b34801561075157600080fd5b5061032a60043560243561120b565b34801561076c57600080fd5b5061023360043561125c565b34801561078457600080fd5b506102c0600435611307565b34801561079c57600080fd5b5061032a600435602435611319565b3480156107b757600080fd5b506102c0611468565b3480156107cc57600080fd5b5061032a600160a060020a036004351660243561146e565b3480156107f057600080fd5b506105eb600160a060020a03600435166114c8565b34801561081157600080fd5b5061032a600160a060020a0360043516602435604435611532565b34801561083857600080fd5b50610416600160a060020a0360043581169060243516611587565b34801561085f57600080fd5b5061032a600160a060020a03600435166115b5565b60058054604080516020601f60026000196101006001881615020190951694909404938401819004810282018101909252828152606093909290918301828280156109005780601f106108d557610100808354040283529160200191610900565b820191906000526020600020905b8154815290600101906020018083116108e357829003601f168201915b505050505090505b90565b60009081526012602052604090205490565b600090815260026020526040902054600160a060020a031690565b600061094382610c95565b9050600160a060020a03838116908216141561095e57600080fd5b33600160a060020a038216148061097a575061097a8133611587565b151561098557600080fd5b60006109908361091d565b600160a060020a03161415806109ae5750600160a060020a03831615155b15610a18576000828152600260209081526040918290208054600160a060020a031916600160a060020a03878116918217909255835186815293519093918516927f8c5be1e5ebec7d5bd14f71427d1e84f3dd0314c0f7b2291e5b200ac8c7c3b925928290030190a35b505050565b600c54600160a060020a0316331480610a405750600054600160a060020a031633145b1515610a4b57600080fd5b600c8054600160a060020a031916600160a060020a0392909216919091179055565b600c54600160a060020a0316331480610a905750600054600160a060020a031633145b1515610a9b57600080fd5b6000918252601360205260409091208054600160a060020a031916600160a060020a03909216919091179055565b60095490565b80610ada338261163c565b1515610ae557600080fd5b600160a060020a0384161515610afa57600080fd5b600160a060020a0383161515610b0f57600080fd5b610b19848361169b565b610b23848361173c565b610b2d8383611875565b82600160a060020a031684600160a060020a03167fddf252ad1be2c89b69c2b068fc378daa952ba7f163c4a11628f55a4df523b3ef846040518082815260200191505060405180910390a350505050565b6000610b8983610d83565b8210610b9457600080fd5b600160a060020a0383166000908152600760205260409020805483908110610bb857fe5b9060005260206000200154905092915050565b80610bd6338261163c565b1515610be157600080fd5b610bfd84848460206040519081016040528060008152506111cc565b50505050565b600090815260016020526040902054600160a060020a0316151590565b6000610c2a610ac9565b8210610c3557600080fd5b6009805483908110610c4357fe5b90600052602060002001549050919050565b600c54600160a060020a0316331480610c785750600054600160a060020a031633145b1515610c8357600080fd5b60009182526015602052604090912055565b600090815260016020526040902054600160a060020a031690565b600c54600160a060020a0316331480610cd35750600054600160a060020a031633145b1515610cde57600080fd5b600e8054600190810191829055604080518082018252600160a060020a0395861681526020808201958652600094855260109052922091518254600160a060020a03191694169390931781559051910155565b600c54600160a060020a0316331480610d545750600054600160a060020a031633145b1515610d5f57600080fd5b60009182526012602052604090912055565b600f6020526000908152604090205481565b6000600160a060020a0382161515610d9a57600080fd5b50600160a060020a031660009081526003602052604090205490565b600c54600160a060020a0316331480610dd95750600054600160a060020a031633145b1515610de457600080fd5b60009182526016602052604090912055565b60009081526010602052604090208054600190910154600160a060020a0390911691565b60009081526016602052604090205490565b600c546000908190600160a060020a0316331480610e545750600054600160a060020a031633145b1515610e5f57600080fd5b50506000828152601060209081526040808320600181015490548585526016909352922054600160a060020a039091169015610f2157604080517f08c379a0000000000000000000000000000000000000000000000000000000008152602060048201526024808201527f546f6b656e2069642068617320616c7265616479206265656e20616c6c6f636160448201527f7465642e00000000000000000000000000000000000000000000000000000000606482015290519081900360840190fd5b600d80546001908101909155600084815260166020908152604080832086905585835260148083528184208054898652601585529285208390559083529381018455928252902001839055610f7681846118be565b50505060009081526010602052604081208054600160a060020a031916815560010155565b60009081526015602052604090205490565b600c54600160a060020a0316331480610fd05750600054600160a060020a031633145b1515610fdb57600080fd5b6000918252600f602052604090912055565b600054600160a060020a031681565b60068054604080516020601f60026000196101006001881615020190951694909404938401819004810282018101909252828152606093909290918301828280156109005780601f106108d557610100808354040283529160200191610900565b6000818152601460209081526040918290208054835181840281018401909452808452606093928301828280156110b357602002820191906000526020600020905b81548152602001906001019080831161109f575b50505050509050919050565b600d5481565b600090815260136020526040902054600160a060020a031690565b600160a060020a0382163314156110f657600080fd5b336000818152600460209081526040808320600160a060020a03871680855290835292819020805460ff1916861515908117909155815190815290519293927f17307eab39ab6107e8899845ad3d59bd9653f200f220920489ca2b5937696c31929181900390910190a35050565b600e5490565b600c54600160a060020a031633148061118d5750600054600160a060020a031633145b151561119857600080fd5b60008381526014602052604090208054829190849081106111b557fe5b600091825260209091200155505050565b600e5481565b816111d7338261163c565b15156111e257600080fd5b6111ed858585610acf565b6111f98585858561190d565b151561120457600080fd5b5050505050565b600c54600160a060020a031633148061122e5750600054600160a060020a031633145b151561123957600080fd5b600091825260146020908152604083208054600181018255908452922090910155565b606061126782610c03565b151561127257600080fd5b6000828152600b602090815260409182902080548351601f6002600019610100600186161502019093169290920491820184900484028101840190945280845290918301828280156110b35780601f106112da576101008083540402835291602001916110b3565b820191906000526020600020905b8154815290600101906020018083116112e85750939695505050505050565b6000908152600f602052604090205490565b600c5460009081908190600160a060020a03163314806113435750600054600160a060020a031633145b151561134e57600080fd5b600084815260166020526040902054851461136857600080fd5b61137184610c95565b925061137d8385611a96565b60008581526014602052604090205461139d90600163ffffffff611b9016565b6000868152601460205260409020805491935090839081106113bb57fe5b60009182526020808320909101548783526014825260408084208885526015909352909220548154929350839281106113f057fe5b600091825260208083209091019290925586815260149091526040812080548490811061141957fe5b6000918252602080832090910192909255868152601490915260409020805490611447906000198301611d86565b50600093845260156020526040808520859055908452832092909255505050565b600d5490565b600c54600160a060020a03163314806114915750600054600160a060020a031633145b151561149c57600080fd5b600160a060020a0390911660009081526011602090815260408220805460018101825590835291200155565b600160a060020a0381166000908152601160209081526040918290208054835181840281018401909452808452606093928301828280156110b3576020028201919060005260206000209081548152602001906001019080831161109f5750505050509050919050565b600c54600160a060020a03163314806115555750600054600160a060020a031633145b151561156057600080fd5b600160a060020a03831660009081526011602052604090208054829190849081106111b557fe5b600160a060020a03918216600090815260046020908152604080832093909416825291909152205460ff1690565b600054600160a060020a031633146115cc57600080fd5b600160a060020a03811615156115e157600080fd5b60008054604051600160a060020a03808516939216917f8be0079c531659141344cd1fd0a4f28419497f9722a3daafe3b4186f6b6457e091a360008054600160a060020a031916600160a060020a0392909216919091179055565b60008061164883610c95565b905080600160a060020a031684600160a060020a03161480611683575083600160a060020a03166116788461091d565b600160a060020a0316145b8061169357506116938185611587565b949350505050565b81600160a060020a03166116ae82610c95565b600160a060020a0316146116c157600080fd5b600081815260026020526040902054600160a060020a0316156117385760008181526002602090815260408083208054600160a060020a031916905580518481529051600160a060020a038616927f8c5be1e5ebec7d5bd14f71427d1e84f3dd0314c0f7b2291e5b200ac8c7c3b925928290030190a35b5050565b600080600061174b8585611ba2565b600084815260086020908152604080832054600160a060020a038916845260079092529091205490935061178690600163ffffffff611b9016565b600160a060020a0386166000908152600760205260409020805491935090839081106117ae57fe5b90600052602060002001549050806007600087600160a060020a0316600160a060020a03168152602001908152602001600020848154811015156117ee57fe5b6000918252602080832090910192909255600160a060020a038716815260079091526040812080548490811061182057fe5b6000918252602080832090910192909255600160a060020a0387168152600790915260409020805490611857906000198301611d86565b50600093845260086020526040808520859055908452909220555050565b60006118818383611c2b565b50600160a060020a039091166000908152600760209081526040808320805460018101825590845282842081018590559383526008909152902055565b6118c88282611cae565b600980546000838152600a60205260408120829055600182018355919091527f6e1540171b6c0c960b71a7020d9f60077f6af931a8bbf590da0223dacf75c7af015550565b60008061192285600160a060020a0316611d12565b15156119315760019150611a8d565b84600160a060020a031663f0b9e5ba8786866040518463ffffffff167c01000000000000000000000000000000000000000000000000000000000281526004018084600160a060020a0316600160a060020a0316815260200183815260200180602001828103825283818151815260200191508051906020019080838360005b838110156119c95781810151838201526020016119b1565b50505050905090810190601f1680156119f65780820380516001836020036101000a031916815260200191505b50945050505050602060405180830381600087803b158015611a1757600080fd5b505af1158015611a2b573d6000803e3d6000fd5b505050506040513d6020811015611a4157600080fd5b50517fffffffff0000000000000000000000000000000000000000000000000000000081167ff0b9e5ba0000000000000000000000000000000000000000000000000000000014925090505b50949350505050565b6000806000611aa58585611d1a565b6000848152600b60205260409020546002600019610100600184161502019091160415611ae3576000848152600b60205260408120611ae391611daa565b6000848152600a6020526040902054600954909350611b0990600163ffffffff611b9016565b9150600982815481101515611b1a57fe5b9060005260206000200154905080600984815481101515611b3757fe5b60009182526020822001919091556009805484908110611b5357fe5b6000918252602090912001556009805490611b72906000198301611d86565b506000938452600a6020526040808520859055908452909220555050565b600082821115611b9c57fe5b50900390565b81600160a060020a0316611bb582610c95565b600160a060020a031614611bc857600080fd5b600160a060020a038216600090815260036020526040902054611bf290600163ffffffff611b9016565b600160a060020a039092166000908152600360209081526040808320949094559181526001909152208054600160a060020a0319169055565b600081815260016020526040902054600160a060020a031615611c4d57600080fd5b60008181526001602081815260408084208054600160a060020a031916600160a060020a0388169081179091558452600390915290912054611c8e91611d73565b600160a060020a0390921660009081526003602052604090209190915550565b600160a060020a0382161515611cc357600080fd5b611ccd8282611875565b604080518281529051600160a060020a038416916000917fddf252ad1be2c89b69c2b068fc378daa952ba7f163c4a11628f55a4df523b3ef9181900360200190a35050565b6000903b1190565b611d24828261169b565b611d2e828261173c565b604080518281529051600091600160a060020a038516917fddf252ad1be2c89b69c2b068fc378daa952ba7f163c4a11628f55a4df523b3ef9181900360200190a35050565b81810182811015611d8057fe5b92915050565b815481835581811115610a1857600083815260209020610a18918101908301611df1565b50805460018160011615610100020316600290046000825580601f10611dd05750611dee565b601f016020900490600052602060002090810190611dee9190611df1565b50565b61090891905b80821115611e0b5760008155600101611df7565b50905600a165627a7a723058204ed9d05a81ad906ae66ddfa93eb688dabd30b806e0b47676850b2d9e335a046d0029",
  "source": "pragma solidity ^0.4.21;\n\nimport \"./token/ERC721/ERC721Token.sol\";\nimport \"./ownership/Ownable.sol\";\n\ncontract EternalStorage is Ownable, ERC721Token(\"TokenPlayRegistry\", \"TPR\") {\n\n  address currentTpAddress;\n\n  modifier onlyCurrentTpContractOrOwner() {\n    require(msg.sender == currentTpAddress || msg.sender == owner);\n    _;\n  }\n\n  function setCurrentTpAddress(address _newAddress) public onlyCurrentTpContractOrOwner {\n    currentTpAddress = _newAddress;\n  }\n\n  struct GameOrder {\n    address buyer;\n    uint256 gamesId;\n  }\n\n  uint256 public tokenIdCounter;\n\n  function getTokenIdCounter() public view returns (uint) {\n    return tokenIdCounter;\n  }\n\n  uint256 public orderCounter;\n\n  function getOrderCounter() public view returns (uint) {\n    return orderCounter;\n  }\n\n  mapping (uint256 => uint256) public gamesIdToGamePrice;\n\n  function setGamesIdToGamePrice(uint _gamesId, uint _gamePrice) public onlyCurrentTpContractOrOwner {\n    gamesIdToGamePrice[_gamesId] = _gamePrice;\n  }\n\n  function getGamesIdToGamePrice(uint _gamesId) public view returns (uint) {\n    return gamesIdToGamePrice[_gamesId];\n  }\n\n  mapping (uint256 => GameOrder) internal pendingOrders;\n\n  function getPendingOrders(uint _orderIndex) public view returns (address, uint) {\n    return (pendingOrders[_orderIndex].buyer, pendingOrders[_orderIndex].gamesId);\n  }\n\n  function setPendingOrder(address _buyer, uint _gamesId) public onlyCurrentTpContractOrOwner {\n    orderCounter++;\n    pendingOrders[orderCounter] = GameOrder(_buyer, _gamesId);\n  }\n\n  mapping(address => uint[]) internal ownerToGamesId;\n\n  function setOwnerToGamesIds(address _owner, uint _index, uint _gamesIds) public onlyCurrentTpContractOrOwner {\n    ownerToGamesId[_owner][_index] = _gamesIds;\n  }\n\n  function getOwnerToGamesIds(address _owner) public view returns (uint[]) {\n    return ownerToGamesId[_owner];\n  }\n\n  function pushOwnerToGamesIds(address _owner, uint _gamesId) public onlyCurrentTpContractOrOwner {\n    ownerToGamesId[_owner].push(_gamesId);\n  }\n\n  mapping(uint256 => uint256) internal gamesIdIndex;\n\n  function getGamesIdIndex(uint _gamesId) public view returns (uint) {\n    return gamesIdIndex[_gamesId];\n  }\n\n  function setGamesIdIndex(uint _gamesId, uint _index) public onlyCurrentTpContractOrOwner {\n    gamesIdIndex[_gamesId] = _index;\n  }\n\n  mapping(uint256 => address) internal gamesIdToOwnerAddress;\n\n  function getGamesIdToOwnerAddress(uint _gamesId) public view returns (address) {\n    return gamesIdToOwnerAddress[_gamesId];\n  }\n\n  function setGamesIdToOwnerAddress(uint _gamesId, address _gameOwner) public onlyCurrentTpContractOrOwner {\n    gamesIdToOwnerAddress[_gamesId] = _gameOwner;\n  }\n\n  mapping(uint256 => uint256[]) internal gamesIdToTokensId;\n\n  function getGamesIdToTokensId(uint _gamesId) public view returns (uint[]) {\n    return gamesIdToTokensId[_gamesId];\n  }\n\n  function setGamesIdToTokensId(uint _gamesId, uint _index, uint _tokensId) public onlyCurrentTpContractOrOwner {\n    gamesIdToTokensId[_gamesId][_index] = _tokensId;\n  }\n\n  function pushGamesIdToTokensId(uint _gamesId, uint _tokenId) public onlyCurrentTpContractOrOwner {\n    gamesIdToTokensId[_gamesId].push(_tokenId);\n  }\n\n  mapping(uint256 => uint256) internal tokensIdToTokensIdIndex;\n\n  function getTokensIdToTokensIdIndex(uint _tokenId) public view returns (uint) {\n    return tokensIdToTokensIdIndex[_tokenId];\n  }\n\n  function setTokensIdToTokensIdIndex(uint _tokenId, uint _index) public onlyCurrentTpContractOrOwner {\n    tokensIdToTokensIdIndex[_tokenId] = _index;\n  }\n\n  mapping(uint256 => uint256) internal tokensIdToGamesId;\n\n  function getTokensIdToGamesId(uint _tokenId) public view returns (uint) {\n    return tokensIdToGamesId[_tokenId];\n  }\n\n  function setTokensIdToGamesId(uint _tokenId, uint _gamesId) public onlyCurrentTpContractOrOwner {\n    tokensIdToGamesId[_tokenId] = _gamesId;\n  }\n\n  function saveGameOrder(uint _orderId, uint _tokensId) public onlyCurrentTpContractOrOwner {\n    uint _gamesId = pendingOrders[_orderId].gamesId;\n    address _buyer = pendingOrders[_orderId].buyer;\n    require(tokensIdToGamesId[_tokensId] == 0, \"Token id has already been allocated.\");\n    tokenIdCounter++;\n    tokensIdToGamesId[_tokensId] = _gamesId;\n    tokensIdToTokensIdIndex[_tokensId] = gamesIdToTokensId[_gamesId].length;\n    gamesIdToTokensId[_gamesId].push(_tokensId);\n\n    _mint(_buyer, _tokensId);\n    // approve(_buyer, _tokensId);\n    // transferFrom(_seller, _buyer, _tokensId);\n\n    delete pendingOrders[_orderId];\n  }\n\n  function saveBurnGame(uint _gamesId, uint _tokensId) public onlyCurrentTpContractOrOwner {\n    require(tokensIdToGamesId[_tokensId] == _gamesId);\n\n    address gameOwner = ownerOf(_tokensId);\n    _burn(gameOwner, _tokensId);\n\n    uint256 lastTokenIndex = gamesIdToTokensId[_gamesId].length.sub(1);\n    uint256 lastToken = gamesIdToTokensId[_gamesId][lastTokenIndex];\n    gamesIdToTokensId[_gamesId][tokensIdToTokensIdIndex[_tokensId]] = lastToken;\n    gamesIdToTokensId[_gamesId][lastTokenIndex] = 0;\n    gamesIdToTokensId[_gamesId].length--;\n    tokensIdToTokensIdIndex[_tokensId] = 0;\n    tokensIdToTokensIdIndex[lastToken] = tokensIdToTokensIdIndex[_tokensId];\n  }\n}",
  "sourcePath": "/Users/garmore/Clients/tokenplay/tokenplay-service/truffle/contracts/EternalStorage.sol",
  "compiler": {
    "name": "solc",
    "version": "0.4.24+commit.e67f0147.Emscripten.clang"
  },
  "schemaVersion": "2.0.0",
  "updatedAt": "2018-06-25T18:09:03.446Z"
}