{
  "contractName": "TokenPlayPayment",
  "abi": [
    {
      "constant": true,
      "inputs": [
        {
          "name": "_tokensId",
          "type": "uint256"
        }
      ],
      "name": "tokenIndexByTokenId",
      "outputs": [
        {
          "name": "",
          "type": "uint256"
        }
      ],
      "payable": false,
      "stateMutability": "view",
      "type": "function"
    },
    {
      "constant": false,
      "inputs": [
        {
          "name": "_gamesId",
          "type": "uint256"
        },
        {
          "name": "_tokensId",
          "type": "uint256"
        },
        {
          "name": "_orderId",
          "type": "uint256"
        }
      ],
      "name": "mintGameCopy",
      "outputs": [],
      "payable": false,
      "stateMutability": "nonpayable",
      "type": "function"
    },
    {
      "constant": false,
      "inputs": [
        {
          "name": "_gameDev",
          "type": "address"
        },
        {
          "name": "_gamesId",
          "type": "uint256"
        }
      ],
      "name": "addGamePublisher",
      "outputs": [],
      "payable": false,
      "stateMutability": "nonpayable",
      "type": "function"
    },
    {
      "constant": false,
      "inputs": [
        {
          "name": "_newStorageAddress",
          "type": "address"
        }
      ],
      "name": "setStorageAddress",
      "outputs": [],
      "payable": false,
      "stateMutability": "nonpayable",
      "type": "function"
    },
    {
      "constant": true,
      "inputs": [
        {
          "name": "_tokensId",
          "type": "uint256"
        }
      ],
      "name": "ownerOf",
      "outputs": [
        {
          "name": "",
          "type": "address"
        }
      ],
      "payable": false,
      "stateMutability": "view",
      "type": "function"
    },
    {
      "constant": true,
      "inputs": [
        {
          "name": "_owner",
          "type": "address"
        },
        {
          "name": "_index",
          "type": "uint256"
        }
      ],
      "name": "gameIdByOwner",
      "outputs": [
        {
          "name": "",
          "type": "uint256"
        }
      ],
      "payable": false,
      "stateMutability": "view",
      "type": "function"
    },
    {
      "constant": true,
      "inputs": [],
      "name": "owner",
      "outputs": [
        {
          "name": "",
          "type": "address"
        }
      ],
      "payable": false,
      "stateMutability": "view",
      "type": "function"
    },
    {
      "constant": true,
      "inputs": [
        {
          "name": "_tokensId",
          "type": "uint256"
        }
      ],
      "name": "gameIdByTokenId",
      "outputs": [
        {
          "name": "",
          "type": "uint256"
        }
      ],
      "payable": false,
      "stateMutability": "view",
      "type": "function"
    },
    {
      "constant": false,
      "inputs": [
        {
          "name": "_gamesId",
          "type": "uint256"
        },
        {
          "name": "_tokensId",
          "type": "uint256"
        }
      ],
      "name": "burnGameCopy",
      "outputs": [],
      "payable": false,
      "stateMutability": "nonpayable",
      "type": "function"
    },
    {
      "constant": false,
      "inputs": [
        {
          "name": "_gameDev",
          "type": "address"
        },
        {
          "name": "_gamesId",
          "type": "uint256"
        }
      ],
      "name": "removeGamePublisher",
      "outputs": [],
      "payable": false,
      "stateMutability": "nonpayable",
      "type": "function"
    },
    {
      "constant": true,
      "inputs": [
        {
          "name": "_gamesId",
          "type": "uint256"
        }
      ],
      "name": "gameIndexByGameId",
      "outputs": [
        {
          "name": "",
          "type": "uint256"
        }
      ],
      "payable": false,
      "stateMutability": "view",
      "type": "function"
    },
    {
      "constant": false,
      "inputs": [
        {
          "name": "newOwner",
          "type": "address"
        }
      ],
      "name": "transferOwnership",
      "outputs": [],
      "payable": false,
      "stateMutability": "nonpayable",
      "type": "function"
    },
    {
      "constant": true,
      "inputs": [
        {
          "name": "_gamesId",
          "type": "uint256"
        }
      ],
      "name": "ownerByGameId",
      "outputs": [
        {
          "name": "",
          "type": "address"
        }
      ],
      "payable": false,
      "stateMutability": "view",
      "type": "function"
    },
    {
      "constant": true,
      "inputs": [
        {
          "name": "_gamesId",
          "type": "uint256"
        },
        {
          "name": "_tokenIndex",
          "type": "uint256"
        }
      ],
      "name": "tokenIdByGameIdIndex",
      "outputs": [
        {
          "name": "",
          "type": "uint256"
        }
      ],
      "payable": false,
      "stateMutability": "view",
      "type": "function"
    },
    {
      "payable": true,
      "stateMutability": "payable",
      "type": "fallback"
    },
    {
      "anonymous": false,
      "inputs": [
        {
          "indexed": true,
          "name": "gamesId",
          "type": "uint256"
        },
        {
          "indexed": true,
          "name": "value",
          "type": "uint256"
        }
      ],
      "name": "PriceSet",
      "type": "event"
    },
    {
      "anonymous": false,
      "inputs": [
        {
          "indexed": true,
          "name": "buyer",
          "type": "address"
        },
        {
          "indexed": true,
          "name": "pendingOrderId",
          "type": "uint256"
        },
        {
          "indexed": true,
          "name": "gamesId",
          "type": "uint256"
        },
        {
          "indexed": false,
          "name": "value",
          "type": "uint256"
        }
      ],
      "name": "GameCopyOrdered",
      "type": "event"
    },
    {
      "anonymous": false,
      "inputs": [
        {
          "indexed": true,
          "name": "buyer",
          "type": "address"
        },
        {
          "indexed": true,
          "name": "gamesId",
          "type": "uint256"
        },
        {
          "indexed": true,
          "name": "tokenId",
          "type": "uint256"
        }
      ],
      "name": "GameOrderAccepted",
      "type": "event"
    },
    {
      "anonymous": false,
      "inputs": [
        {
          "indexed": false,
          "name": "addr",
          "type": "address"
        },
        {
          "indexed": false,
          "name": "gamesId",
          "type": "uint256"
        },
        {
          "indexed": false,
          "name": "index",
          "type": "uint256"
        }
      ],
      "name": "AddedGamePublisher",
      "type": "event"
    },
    {
      "anonymous": false,
      "inputs": [
        {
          "indexed": false,
          "name": "addr",
          "type": "address"
        },
        {
          "indexed": false,
          "name": "gamesId",
          "type": "uint256"
        },
        {
          "indexed": false,
          "name": "index",
          "type": "uint256"
        }
      ],
      "name": "RemovedGamePublisher",
      "type": "event"
    },
    {
      "anonymous": false,
      "inputs": [
        {
          "indexed": false,
          "name": "addr",
          "type": "address"
        },
        {
          "indexed": false,
          "name": "gamesId",
          "type": "uint256"
        },
        {
          "indexed": false,
          "name": "tokensId",
          "type": "uint256"
        },
        {
          "indexed": false,
          "name": "index",
          "type": "uint256"
        }
      ],
      "name": "GameCopyCreated",
      "type": "event"
    },
    {
      "anonymous": false,
      "inputs": [
        {
          "indexed": false,
          "name": "addr",
          "type": "address"
        },
        {
          "indexed": false,
          "name": "gamesId",
          "type": "uint256"
        },
        {
          "indexed": false,
          "name": "tokensId",
          "type": "uint256"
        },
        {
          "indexed": false,
          "name": "index",
          "type": "uint256"
        }
      ],
      "name": "GameCopyRemoved",
      "type": "event"
    },
    {
      "anonymous": false,
      "inputs": [
        {
          "indexed": true,
          "name": "previousOwner",
          "type": "address"
        },
        {
          "indexed": true,
          "name": "newOwner",
          "type": "address"
        }
      ],
      "name": "OwnershipTransferred",
      "type": "event"
    },
    {
      "constant": false,
      "inputs": [
        {
          "name": "_gamesId",
          "type": "uint256"
        },
        {
          "name": "_price",
          "type": "uint256"
        }
      ],
      "name": "setPrice",
      "outputs": [],
      "payable": false,
      "stateMutability": "nonpayable",
      "type": "function"
    },
    {
      "constant": false,
      "inputs": [
        {
          "name": "_gameDev",
          "type": "address"
        },
        {
          "name": "_gamesId",
          "type": "uint256"
        },
        {
          "name": "_price",
          "type": "uint256"
        }
      ],
      "name": "addGameWithPrice",
      "outputs": [],
      "payable": false,
      "stateMutability": "nonpayable",
      "type": "function"
    },
    {
      "constant": false,
      "inputs": [
        {
          "name": "_gamesId",
          "type": "uint256"
        }
      ],
      "name": "orderGameCopy",
      "outputs": [],
      "payable": true,
      "stateMutability": "payable",
      "type": "function"
    },
    {
      "constant": true,
      "inputs": [
        {
          "name": "_orderId",
          "type": "uint256"
        }
      ],
      "name": "getGameOrder",
      "outputs": [
        {
          "name": "",
          "type": "address"
        },
        {
          "name": "",
          "type": "uint256"
        }
      ],
      "payable": false,
      "stateMutability": "view",
      "type": "function"
    },
    {
      "constant": false,
      "inputs": [
        {
          "name": "_orderId",
          "type": "uint256"
        }
      ],
      "name": "acceptGameOrder",
      "outputs": [],
      "payable": false,
      "stateMutability": "nonpayable",
      "type": "function"
    }
  ],
  "bytecode": "0x608060405260018054600160a060020a031990811673190d7484303ef6ad07a3d5625054808c2345e9871791829055600280548216600160a060020a0393909316929092179091556000805490911633179055611fc8806100616000396000f3006080604052600436106100ed5763ffffffff60e060020a60003504166322f97ea081146100f25780632d8d5c0c146100ff5780633de3d702146101265780634f95538e14610150578063570603001461016e57806359b910d6146101925780636352211e146101b35780638051245b146101e75780638da5cb5b1461020b5780638f88ecb4146102205780639e3c8cb114610238578063ab6c103014610273578063c03125261461028b578063ce420974146102a6578063d5f6a991146102ca578063f2fde38b146102e2578063f7d9757714610303578063f8591b751461031e578063fa9f710314610336575b600080fd5b6100fd600435610351565b005b34801561010b57600080fd5b506100fd600160a060020a03600435166024356044356106a9565b34801561013257600080fd5b5061013e6004356106d9565b60408051918252519081900360200190f35b34801561015c57600080fd5b506100fd600435602435604435610771565b34801561017a57600080fd5b506100fd600160a060020a0360043516602435610af4565b34801561019e57600080fd5b506100fd600160a060020a0360043516610e6d565b3480156101bf57600080fd5b506101cb600435610eb3565b60408051600160a060020a039092168252519081900360200190f35b3480156101f357600080fd5b5061013e600160a060020a0360043516602435610f19565b34801561021757600080fd5b506101cb611046565b34801561022c57600080fd5b5061013e600435611055565b34801561024457600080fd5b506102506004356110bb565b60408051600160a060020a03909316835260208301919091528051918290030190f35b34801561027f57600080fd5b506100fd60043561115e565b34801561029757600080fd5b506100fd600435602435611448565b3480156102b257600080fd5b506100fd600160a060020a03600435166024356116fd565b3480156102d657600080fd5b5061013e600435611c58565b3480156102ee57600080fd5b506100fd600160a060020a0360043516611cbe565b34801561030f57600080fd5b506100fd600435602435611d52565b34801561032a57600080fd5b506101cb600435611eba565b34801561034257600080fd5b5061013e600435602435611f0a565b600254604080517fd122d201000000000000000000000000000000000000000000000000000000008152600481018490529051600092839285928492600160a060020a03169163d122d20191602480830192602092919082900301818787803b1580156103bd57600080fd5b505af11580156103d1573d6000803e3d6000fd5b505050506040513d60208110156103e757600080fd5b5051905080158015906103f957503481145b151561049b576040805160e560020a62461bcd02815260206004820152604260248201527f47616d65206e6f742072656769737465726564206f72207472616e736163746960448201527f6f6e2076616c756520646f6573206e6f74206d617463682067616d652070726960648201527f6365000000000000000000000000000000000000000000000000000000000000608482015290519081900360a40190fd5b61052b6001600260009054906101000a9004600160a060020a0316600160a060020a031663b629a26a6040518163ffffffff1660e060020a028152600401602060405180830381600087803b1580156104f357600080fd5b505af1158015610507573d6000803e3d6000fd5b505050506040513d602081101561051d57600080fd5b50519063ffffffff611f7716565b6002546040805160e060020a63a05b7b6f028152600481018990529051929650600160a060020a039091169163a05b7b6f916024808201926020929091908290030181600087803b15801561057f57600080fd5b505af1158015610593573d6000803e3d6000fd5b505050506040513d60208110156105a957600080fd5b5051604051909350600160a060020a038416903480156108fc02916000818181858888f193505050501580156105e3573d6000803e3d6000fd5b50600254604080517f6390b9cc000000000000000000000000000000000000000000000000000000008152336004820152602481018890529051600160a060020a0390921691636390b9cc9160448082019260009290919082900301818387803b15801561065057600080fd5b505af1158015610664573d6000803e3d6000fd5b505060408051348152905188935087925033917f36ded43fc95decdabd3927327283a901c6e86bcba4dd829ba1ca536e3025fccb919081900360200190a45050505050565b600054600160a060020a031633146106c057600080fd5b6106ca8383610af4565b6106d48282611d52565b505050565b600254604080517f7a55ee88000000000000000000000000000000000000000000000000000000008152600481018490529051600092600160a060020a031691637a55ee8891602480830192602092919082900301818787803b15801561073f57600080fd5b505af1158015610753573d6000803e3d6000fd5b505050506040513d602081101561076957600080fd5b505192915050565b6002546040805160e060020a63a05b7b6f028152600481018690529051600092339287928492600160a060020a03169163a05b7b6f91602480830192602092919082900301818a87803b1580156107c757600080fd5b505af11580156107db573d6000803e3d6000fd5b505050506040513d60208110156107f157600080fd5b5051600160a060020a031614806108155750600054600160a060020a038381169116145b151561082057600080fd5b600254604080517f778ebc75000000000000000000000000000000000000000000000000000000008152600481018890529051600160a060020a039092169163778ebc75916024808201926020929091908290030181600087803b15801561088757600080fd5b505af115801561089b573d6000803e3d6000fd5b505050506040513d60208110156108b157600080fd5b50511561092d576040805160e560020a62461bcd028152602060048201526024808201527f546f6b656e2069642068617320616c7265616479206265656e20616c6c6f636160448201527f7465642e00000000000000000000000000000000000000000000000000000000606482015290519081900360840190fd5b600254604080517f961dd094000000000000000000000000000000000000000000000000000000008152600481018990529051600160a060020a039092169163961dd0949160248082019260009290919082900301818387803b15801561099357600080fd5b505af11580156109a7573d6000803e3d6000fd5b505050506040513d6000823e601f3d908101601f1916820160405260208110156109d057600080fd5b8101908080516401000000008111156109e857600080fd5b820160208101848111156109fb57600080fd5b8151856020820283011164010000000082111715610a1857600080fd5b505051600254604080517f79cf1d6d000000000000000000000000000000000000000000000000000000008152600481018b9052602481018c90529051929850600160a060020a0390911694506379cf1d6d9350604480820193506000929182900301818387803b158015610a8c57600080fd5b505af1158015610aa0573d6000803e3d6000fd5b505060408051338152602081018a90528082018990526060810187905290517fd01f6c5ab597ebb09b093b459260f0b061d74e5708eac099a564a87870f9d9c39350908190036080019150a1505050505050565b60008054600160a060020a03163314610b0c57600080fd5b6002546040805160e060020a63a05b7b6f028152600481018590529051600092600160a060020a03169163a05b7b6f91602480830192602092919082900301818787803b158015610b5c57600080fd5b505af1158015610b70573d6000803e3d6000fd5b505050506040513d6020811015610b8657600080fd5b5051600160a060020a031614610b9b57600080fd5b600254604080517fdd5d8393000000000000000000000000000000000000000000000000000000008152600160a060020a0386811660048301529151919092169163dd5d839391602480830192600092919082900301818387803b158015610c0257600080fd5b505af1158015610c16573d6000803e3d6000fd5b505050506040513d6000823e601f3d908101601f191682016040526020811015610c3f57600080fd5b810190808051640100000000811115610c5757600080fd5b82016020810184811115610c6a57600080fd5b8151856020820283011164010000000082111715610c8757600080fd5b505051600254604080517f17f08c3c00000000000000000000000000000000000000000000000000000000815260048101899052600160a060020a038a811660248301529151939750911694506317f08c3c9350604480820193506000929182900301818387803b158015610cfb57600080fd5b505af1158015610d0f573d6000803e3d6000fd5b5050600254604080517fdc728f76000000000000000000000000000000000000000000000000000000008152600160a060020a03888116600483015260248201889052915191909216935063dc728f769250604480830192600092919082900301818387803b158015610d8157600080fd5b505af1158015610d95573d6000803e3d6000fd5b5050600254604080517f6a71a95900000000000000000000000000000000000000000000000000000000815260048101879052602481018690529051600160a060020a039092169350636a71a959925060448082019260009290919082900301818387803b158015610e0657600080fd5b505af1158015610e1a573d6000803e3d6000fd5b505060408051600160a060020a03871681526020810186905280820185905290517fff6fa22822d34eaa852a4c7c1bf0ecb4187a9f2131ce7443224817d070e8131d9350908190036060019150a1505050565b600054600160a060020a03163314610e8457600080fd5b6002805473ffffffffffffffffffffffffffffffffffffffff1916600160a060020a0392909216919091179055565b600254604080517f6352211e000000000000000000000000000000000000000000000000000000008152600481018490529051600092600160a060020a031691636352211e91602480830192602092919082900301818787803b15801561073f57600080fd5b600254604080517fdd5d8393000000000000000000000000000000000000000000000000000000008152600160a060020a0385811660048301529151600093606093859391169163dd5d839391602480820192869290919082900301818387803b158015610f8657600080fd5b505af1158015610f9a573d6000803e3d6000fd5b505050506040513d6000823e601f3d908101601f191682016040526020811015610fc357600080fd5b810190808051640100000000811115610fdb57600080fd5b82016020810184811115610fee57600080fd5b815185602082028301116401000000008211171561100b57600080fd5b5050805190955093505050818510905061102457600080fd5b818481518110151561103257fe5b906020019060200201519250505092915050565b600054600160a060020a031681565b600254604080517f778ebc75000000000000000000000000000000000000000000000000000000008152600481018490529051600092600160a060020a03169163778ebc7591602480830192602092919082900301818787803b15801561073f57600080fd5b600254604080517f758c29090000000000000000000000000000000000000000000000000000000081526004810184905281516000938493600160a060020a039091169263758c2909926024808301939282900301818787803b15801561112157600080fd5b505af1158015611135573d6000803e3d6000fd5b505050506040513d604081101561114b57600080fd5b5080516020909101519092509050915091565b600254604080517f758c2909000000000000000000000000000000000000000000000000000000008152600481018490528151600093849384938493600160a060020a039093169263758c29099260248084019391929182900301818787803b1580156111ca57600080fd5b505af11580156111de573d6000803e3d6000fd5b505050506040513d60408110156111f457600080fd5b5080516020909101519094509250600160a060020a0384161515611288576040805160e560020a62461bcd02815260206004820152602360248201527f4f7264657220646f6573206e6f7420686176652061206275796572206164647260448201527f6573730000000000000000000000000000000000000000000000000000000000606482015290519081900360840190fd5b6002546040805160e060020a63a05b7b6f028152600481018690529051600160a060020a039092169163a05b7b6f916024808201926020929091908290030181600087803b1580156112d957600080fd5b505af11580156112ed573d6000803e3d6000fd5b505050506040513d602081101561130357600080fd5b50519150600160a060020a0382163314806113285750600054600160a060020a031633145b15156113a4576040805160e560020a62461bcd02815260206004820152603260248201527f47616d6520646f6573206e6f742062656c6f6e6720746f207472616e7361637460448201527f696f6e206f726967696e20616464726573730000000000000000000000000000606482015290519081900360840190fd5b6113fc6001600260009054906101000a9004600160a060020a0316600160a060020a031663dbfd4b986040518163ffffffff1660e060020a028152600401602060405180830381600087803b1580156104f357600080fd5b9050611409838287610771565b808385600160a060020a03167fff915ac8579177a3dca0031db948aa4cbb610915ffa4e6f31ff3813760cd874060405160405180910390a45050505050565b6002546040805160e060020a63a05b7b6f028152600481018590529051600092339286928492600160a060020a03169163a05b7b6f91602480830192602092919082900301818a87803b15801561149e57600080fd5b505af11580156114b2573d6000803e3d6000fd5b505050506040513d60208110156114c857600080fd5b5051600160a060020a031614806114ec5750600054600160a060020a038381169116145b15156114f757600080fd5b600254604080517f778ebc750000000000000000000000000000000000000000000000000000000081526004810187905290518792600160a060020a03169163778ebc759160248083019260209291908290030181600087803b15801561155d57600080fd5b505af1158015611571573d6000803e3d6000fd5b505050506040513d602081101561158757600080fd5b50511461159357600080fd5b600254604080517f7a55ee88000000000000000000000000000000000000000000000000000000008152600481018790529051600160a060020a0390921691637a55ee88916024808201926020929091908290030181600087803b1580156115fa57600080fd5b505af115801561160e573d6000803e3d6000fd5b505050506040513d602081101561162457600080fd5b5051600254604080517fd918348600000000000000000000000000000000000000000000000000000000815260048101899052602481018890529051929550600160a060020a039091169163d91834869160448082019260009290919082900301818387803b15801561169657600080fd5b505af11580156116aa573d6000803e3d6000fd5b505060408051338152602081018990528082018890526060810187905290517f8f8299472a961503eabe36fc6fee154adc1e9dadf6aa0649fd9d2feb76a98f4e9350908190036080019150a15050505050565b6000805460609082908190600160a060020a0316331461171c57600080fd5b6002546040805160e060020a63a05b7b6f028152600481018890529051600160a060020a03808a1693169163a05b7b6f9160248083019260209291908290030181600087803b15801561176e57600080fd5b505af1158015611782573d6000803e3d6000fd5b505050506040513d602081101561179857600080fd5b5051600160a060020a0316146117ad57600080fd5b600254604080517f07e14091000000000000000000000000000000000000000000000000000000008152600481018890529051600160a060020a03909216916307e14091916024808201926020929091908290030181600087803b15801561181457600080fd5b505af1158015611828573d6000803e3d6000fd5b505050506040513d602081101561183e57600080fd5b5051600254604080517fdd5d8393000000000000000000000000000000000000000000000000000000008152600160a060020a038a81166004830152915193975091169163dd5d83939160248082019260009290919082900301818387803b1580156118a957600080fd5b505af11580156118bd573d6000803e3d6000fd5b505050506040513d6000823e601f3d908101601f1916820160405260208110156118e657600080fd5b8101908080516401000000008111156118fe57600080fd5b8201602081018481111561191157600080fd5b815185602082028301116401000000008211171561192e57600080fd5b5050805190965061194b935091506001905063ffffffff611f8a16565b9150828281518110151561195b57fe5b60209081029091010151600254604080517fe960ab7e000000000000000000000000000000000000000000000000000000008152600160a060020a038a811660048301526024820189905260448201859052915193945091169163e960ab7e9160648082019260009290919082900301818387803b1580156119dc57600080fd5b505af11580156119f0573d6000803e3d6000fd5b5050600254604080517fe960ab7e000000000000000000000000000000000000000000000000000000008152600160a060020a038b811660048301526024820188905260006044830181905292519316945063e960ab7e93506064808201939182900301818387803b158015611a6557600080fd5b505af1158015611a79573d6000803e3d6000fd5b5050600254604080517f6a71a959000000000000000000000000000000000000000000000000000000008152600481018a90526000602482018190529151600160a060020a039093169450636a71a95993506044808201939182900301818387803b158015611ae757600080fd5b505af1158015611afb573d6000803e3d6000fd5b5050600254604080517f6a71a95900000000000000000000000000000000000000000000000000000000815260048101869052602481018990529051600160a060020a039092169350636a71a959925060448082019260009290919082900301818387803b158015611b6c57600080fd5b505af1158015611b80573d6000803e3d6000fd5b5050600254604080517f17f08c3c000000000000000000000000000000000000000000000000000000008152600481018a90526000602482018190529151600160a060020a0390931694506317f08c3c93506044808201939182900301818387803b158015611bee57600080fd5b505af1158015611c02573d6000803e3d6000fd5b505060408051600160a060020a038a1681526020810189905280820188905290517f71f7100268c7683c894f230d2d767a7fc9087d9465bbca088b0cb6ba1004882e9350908190036060019150a1505050505050565b600254604080517f07e14091000000000000000000000000000000000000000000000000000000008152600481018490529051600092600160a060020a0316916307e1409191602480830192602092919082900301818787803b15801561073f57600080fd5b600054600160a060020a03163314611cd557600080fd5b600160a060020a0381161515611cea57600080fd5b60008054604051600160a060020a03808516939216917f8be0079c531659141344cd1fd0a4f28419497f9722a3daafe3b4186f6b6457e091a36000805473ffffffffffffffffffffffffffffffffffffffff1916600160a060020a0392909216919091179055565b6002546040805160e060020a63a05b7b6f028152600481018590529051339285928492600160a060020a039092169163a05b7b6f916024808201926020929091908290030181600087803b158015611da957600080fd5b505af1158015611dbd573d6000803e3d6000fd5b505050506040513d6020811015611dd357600080fd5b5051600160a060020a03161480611df75750600054600160a060020a038381169116145b1515611e0257600080fd5b600254604080517f86c4cc2d00000000000000000000000000000000000000000000000000000000815260048101879052602481018690529051600160a060020a03909216916386c4cc2d9160448082019260009290919082900301818387803b158015611e6f57600080fd5b505af1158015611e83573d6000803e3d6000fd5b50506040518592508691507fa0f1665b7b659537b52deec61ea64d134a3bccda74c7f4e79f2246e7a8187a8a90600090a350505050565b6002546040805160e060020a63a05b7b6f028152600481018490529051600092600160a060020a03169163a05b7b6f91602480830192602092919082900301818787803b15801561073f57600080fd5b600254604080517f961dd0940000000000000000000000000000000000000000000000000000000081526004810185905290516000926060928492600160a060020a039092169163961dd09491602480820192869290919082900301818387803b158015610f8657600080fd5b81810182811015611f8457fe5b92915050565b600082821115611f9657fe5b509003905600a165627a7a723058202e2c42b8310fe939167ee5f9e6c8e7af641da5da7c968c5ed7754dfe6cd8202f0029",
  "source": "pragma solidity ^0.4.21;\n\nimport \"./TokenPlayRegistry.sol\";\n\ncontract TokenPlayPayment is TokenPlayRegistry {\n  event PriceSet(uint256 indexed gamesId, uint256 indexed value);\n  event GameCopyOrdered(address indexed buyer, uint256 indexed pendingOrderId, uint256 indexed gamesId, uint256 value);\n  event GameOrderAccepted(address indexed buyer, uint256 indexed gamesId, uint256 indexed tokenId);\n\n  modifier matchPrice(uint256 _gamesId) {\n    uint gamePrice = TpEternalStorage.getGamesIdToGamePrice(_gamesId);\n    require(gamePrice != 0 && gamePrice == msg.value, \n      \"Game not registered or transaction value does not match game price\");\n    _;\n  }\n\n  function setPrice(uint256 _gamesId, uint256 _price) public onlyOwnerOrGamePublisher(msg.sender, _gamesId) {\n    TpEternalStorage.setGamesIdToGamePrice(_gamesId, _price);\n    emit PriceSet(_gamesId, _price);\n  }\n\n  function addGameWithPrice(address _gameDev, uint256 _gamesId, uint256 _price) public onlyOwner {\n    addGamePublisher(_gameDev, _gamesId);\n    setPrice(_gamesId, _price);\n  }\n\n  function orderGameCopy(uint256 _gamesId) public payable matchPrice(_gamesId) {\n    uint orderCount = TpEternalStorage.getOrderCounter().add(1);\n    address gamePublisher = TpEternalStorage.getGamesIdToOwnerAddress(_gamesId);\n    gamePublisher.transfer(msg.value);\n    TpEternalStorage.setPendingOrder(msg.sender, _gamesId);\n    emit GameCopyOrdered(msg.sender, orderCount, _gamesId, msg.value);\n  }\n  \n  function getGameOrder(uint256 _orderId) public view returns (address, uint256) {\n    return (TpEternalStorage.getPendingOrders(_orderId));\n  }\n\n  function acceptGameOrder(uint256 _orderId) public {\n    address _gameBuyer;\n    uint _gamesId;\n    (_gameBuyer, _gamesId) = TpEternalStorage.getPendingOrders(_orderId);\n    require(_gameBuyer != address(0), \"Order does not have a buyer address\");\n    address _ownerAddress = TpEternalStorage.getGamesIdToOwnerAddress(_gamesId);\n    require(_ownerAddress == msg.sender || msg.sender == owner,\n      \"Game does not belong to transaction origin address\");\n\n    uint _tokenId = TpEternalStorage.getTokenIdCounter().add(1);\n    mintGameCopy(_gamesId, _tokenId, _orderId);\n    emit GameOrderAccepted(_gameBuyer, _gamesId, _tokenId);\n  }\n}\n",
  "sourcePath": "/Users/garmore/Clients/tokenplay/tokenplay-service/truffle/contracts/TokenPlayPayment.sol",
  "compiler": {
    "name": "solc",
    "version": "0.4.24+commit.e67f0147.Emscripten.clang"
  },
  "schemaVersion": "2.0.0",
  "updatedAt": "2018-06-25T18:09:03.439Z"
}