{
  "contractName": "TurboPlayRegistry",
  "abi": [
    {
      "constant": true,
      "inputs": [],
      "name": "owner",
      "outputs": [
        {
          "name": "",
          "type": "address"
        }
      ],
      "payable": false,
      "stateMutability": "view",
      "type": "function"
    },
    {
      "constant": false,
      "inputs": [
        {
          "name": "newOwner",
          "type": "address"
        }
      ],
      "name": "transferOwnership",
      "outputs": [],
      "payable": false,
      "stateMutability": "nonpayable",
      "type": "function"
    },
    {
      "payable": true,
      "stateMutability": "payable",
      "type": "fallback"
    },
    {
      "anonymous": false,
      "inputs": [
        {
          "indexed": false,
          "name": "addr",
          "type": "address"
        },
        {
          "indexed": false,
          "name": "gamesId",
          "type": "uint256"
        },
        {
          "indexed": false,
          "name": "index",
          "type": "uint256"
        }
      ],
      "name": "AddedGamePublisher",
      "type": "event"
    },
    {
      "anonymous": false,
      "inputs": [
        {
          "indexed": false,
          "name": "addr",
          "type": "address"
        },
        {
          "indexed": false,
          "name": "gamesId",
          "type": "uint256"
        },
        {
          "indexed": false,
          "name": "index",
          "type": "uint256"
        }
      ],
      "name": "RemovedGamePublisher",
      "type": "event"
    },
    {
      "anonymous": false,
      "inputs": [
        {
          "indexed": false,
          "name": "addr",
          "type": "address"
        },
        {
          "indexed": false,
          "name": "gamesId",
          "type": "uint256"
        },
        {
          "indexed": false,
          "name": "tokensId",
          "type": "uint256"
        },
        {
          "indexed": false,
          "name": "index",
          "type": "uint256"
        }
      ],
      "name": "GameCopyCreated",
      "type": "event"
    },
    {
      "anonymous": false,
      "inputs": [
        {
          "indexed": false,
          "name": "addr",
          "type": "address"
        },
        {
          "indexed": false,
          "name": "gamesId",
          "type": "uint256"
        },
        {
          "indexed": false,
          "name": "tokensId",
          "type": "uint256"
        },
        {
          "indexed": false,
          "name": "index",
          "type": "uint256"
        }
      ],
      "name": "GameCopyRemoved",
      "type": "event"
    },
    {
      "anonymous": false,
      "inputs": [
        {
          "indexed": true,
          "name": "previousOwner",
          "type": "address"
        },
        {
          "indexed": true,
          "name": "newOwner",
          "type": "address"
        }
      ],
      "name": "OwnershipTransferred",
      "type": "event"
    },
    {
      "constant": false,
      "inputs": [
        {
          "name": "_newStorageAddress",
          "type": "address"
        }
      ],
      "name": "setStorageAddress",
      "outputs": [],
      "payable": false,
      "stateMutability": "nonpayable",
      "type": "function"
    },
    {
      "constant": true,
      "inputs": [
        {
          "name": "_tokensId",
          "type": "uint256"
        }
      ],
      "name": "ownerOf",
      "outputs": [
        {
          "name": "",
          "type": "address"
        }
      ],
      "payable": false,
      "stateMutability": "view",
      "type": "function"
    },
    {
      "constant": true,
      "inputs": [
        {
          "name": "_owner",
          "type": "address"
        },
        {
          "name": "_index",
          "type": "uint256"
        }
      ],
      "name": "gameIdByOwner",
      "outputs": [
        {
          "name": "",
          "type": "uint256"
        }
      ],
      "payable": false,
      "stateMutability": "view",
      "type": "function"
    },
    {
      "constant": true,
      "inputs": [
        {
          "name": "_gamesId",
          "type": "uint256"
        }
      ],
      "name": "gameIndexByGameId",
      "outputs": [
        {
          "name": "",
          "type": "uint256"
        }
      ],
      "payable": false,
      "stateMutability": "view",
      "type": "function"
    },
    {
      "constant": true,
      "inputs": [
        {
          "name": "_gamesId",
          "type": "uint256"
        }
      ],
      "name": "ownerByGameId",
      "outputs": [
        {
          "name": "",
          "type": "address"
        }
      ],
      "payable": false,
      "stateMutability": "view",
      "type": "function"
    },
    {
      "constant": true,
      "inputs": [
        {
          "name": "_gamesId",
          "type": "uint256"
        },
        {
          "name": "_tokenIndex",
          "type": "uint256"
        }
      ],
      "name": "tokenIdByGameIdIndex",
      "outputs": [
        {
          "name": "",
          "type": "uint256"
        }
      ],
      "payable": false,
      "stateMutability": "view",
      "type": "function"
    },
    {
      "constant": true,
      "inputs": [
        {
          "name": "_tokensId",
          "type": "uint256"
        }
      ],
      "name": "tokenIndexByTokenId",
      "outputs": [
        {
          "name": "",
          "type": "uint256"
        }
      ],
      "payable": false,
      "stateMutability": "view",
      "type": "function"
    },
    {
      "constant": true,
      "inputs": [
        {
          "name": "_tokensId",
          "type": "uint256"
        }
      ],
      "name": "gameIdByTokenId",
      "outputs": [
        {
          "name": "",
          "type": "uint256"
        }
      ],
      "payable": false,
      "stateMutability": "view",
      "type": "function"
    },
    {
      "constant": false,
      "inputs": [
        {
          "name": "_gameDev",
          "type": "address"
        },
        {
          "name": "_gamesId",
          "type": "uint256"
        }
      ],
      "name": "addGamePublisher",
      "outputs": [],
      "payable": false,
      "stateMutability": "nonpayable",
      "type": "function"
    },
    {
      "constant": false,
      "inputs": [
        {
          "name": "_gameDev",
          "type": "address"
        },
        {
          "name": "_gamesId",
          "type": "uint256"
        }
      ],
      "name": "removeGamePublisher",
      "outputs": [],
      "payable": false,
      "stateMutability": "nonpayable",
      "type": "function"
    },
    {
      "constant": false,
      "inputs": [
        {
          "name": "_gamesId",
          "type": "uint256"
        },
        {
          "name": "_tokensId",
          "type": "uint256"
        },
        {
          "name": "_orderId",
          "type": "uint256"
        }
      ],
      "name": "mintGameCopy",
      "outputs": [],
      "payable": false,
      "stateMutability": "nonpayable",
      "type": "function"
    },
    {
      "constant": false,
      "inputs": [
        {
          "name": "_gamesId",
          "type": "uint256"
        },
        {
          "name": "_tokensId",
          "type": "uint256"
        }
      ],
      "name": "burnGameCopy",
      "outputs": [],
      "payable": false,
      "stateMutability": "nonpayable",
      "type": "function"
    }
  ],
  "bytecode": "0x608060405260018054600160a060020a031990811673190d7484303ef6ad07a3d5625054808c2345e9871791829055600280548216600160a060020a0393909316929092179091556000805490911633179055611691806100616000396000f3006080604052600436106100cf5763ffffffff7c01000000000000000000000000000000000000000000000000000000006000350416633de3d70281146100d45780634f95538e146100fe578063570603001461011e57806359b910d6146101425780636352211e146101635780638051245b146101975780638da5cb5b146101bb5780638f88ecb4146101d0578063c0312526146101e8578063ce42097414610203578063d5f6a99114610227578063f2fde38b1461023f578063f8591b7514610260578063fa9f710314610278575b600080fd5b3480156100e057600080fd5b506100ec600435610293565b60408051918252519081900360200190f35b34801561010a57600080fd5b5061011c60043560243560443561032b565b005b34801561012a57600080fd5b5061011c600160a060020a03600435166024356106c5565b34801561014e57600080fd5b5061011c600160a060020a0360043516610a3e565b34801561016f57600080fd5b5061017b600435610a84565b60408051600160a060020a039092168252519081900360200190f35b3480156101a357600080fd5b506100ec600160a060020a0360043516602435610aea565b3480156101c757600080fd5b5061017b610c17565b3480156101dc57600080fd5b506100ec600435610c26565b3480156101f457600080fd5b5061011c600435602435610c8c565b34801561020f57600080fd5b5061011c600160a060020a0360043516602435610f41565b34801561023357600080fd5b506100ec60043561149c565b34801561024b57600080fd5b5061011c600160a060020a0360043516611502565b34801561026c57600080fd5b5061017b600435611596565b34801561028457600080fd5b506100ec6004356024356115e6565b600254604080517f7a55ee88000000000000000000000000000000000000000000000000000000008152600481018490529051600092600160a060020a031691637a55ee8891602480830192602092919082900301818787803b1580156102f957600080fd5b505af115801561030d573d6000803e3d6000fd5b505050506040513d602081101561032357600080fd5b505192915050565b6002546040805160e060020a63a05b7b6f028152600481018690529051600092339287928492600160a060020a03169163a05b7b6f91602480830192602092919082900301818a87803b15801561038157600080fd5b505af1158015610395573d6000803e3d6000fd5b505050506040513d60208110156103ab57600080fd5b5051600160a060020a031614806103cf5750600054600160a060020a038381169116145b15156103da57600080fd5b600254604080517f778ebc75000000000000000000000000000000000000000000000000000000008152600481018890529051600160a060020a039092169163778ebc75916024808201926020929091908290030181600087803b15801561044157600080fd5b505af1158015610455573d6000803e3d6000fd5b505050506040513d602081101561046b57600080fd5b5051156104fe57604080517f08c379a0000000000000000000000000000000000000000000000000000000008152602060048201526024808201527f546f6b656e2069642068617320616c7265616479206265656e20616c6c6f636160448201527f7465642e00000000000000000000000000000000000000000000000000000000606482015290519081900360840190fd5b600254604080517f961dd094000000000000000000000000000000000000000000000000000000008152600481018990529051600160a060020a039092169163961dd0949160248082019260009290919082900301818387803b15801561056457600080fd5b505af1158015610578573d6000803e3d6000fd5b505050506040513d6000823e601f3d908101601f1916820160405260208110156105a157600080fd5b8101908080516401000000008111156105b957600080fd5b820160208101848111156105cc57600080fd5b81518560208202830111640100000000821117156105e957600080fd5b505051600254604080517f79cf1d6d000000000000000000000000000000000000000000000000000000008152600481018b9052602481018c90529051929850600160a060020a0390911694506379cf1d6d9350604480820193506000929182900301818387803b15801561065d57600080fd5b505af1158015610671573d6000803e3d6000fd5b505060408051338152602081018a90528082018990526060810187905290517fd01f6c5ab597ebb09b093b459260f0b061d74e5708eac099a564a87870f9d9c39350908190036080019150a1505050505050565b60008054600160a060020a031633146106dd57600080fd5b6002546040805160e060020a63a05b7b6f028152600481018590529051600092600160a060020a03169163a05b7b6f91602480830192602092919082900301818787803b15801561072d57600080fd5b505af1158015610741573d6000803e3d6000fd5b505050506040513d602081101561075757600080fd5b5051600160a060020a03161461076c57600080fd5b600254604080517fdd5d8393000000000000000000000000000000000000000000000000000000008152600160a060020a0386811660048301529151919092169163dd5d839391602480830192600092919082900301818387803b1580156107d357600080fd5b505af11580156107e7573d6000803e3d6000fd5b505050506040513d6000823e601f3d908101601f19168201604052602081101561081057600080fd5b81019080805164010000000081111561082857600080fd5b8201602081018481111561083b57600080fd5b815185602082028301116401000000008211171561085857600080fd5b505051600254604080517f17f08c3c00000000000000000000000000000000000000000000000000000000815260048101899052600160a060020a038a811660248301529151939750911694506317f08c3c9350604480820193506000929182900301818387803b1580156108cc57600080fd5b505af11580156108e0573d6000803e3d6000fd5b5050600254604080517fdc728f76000000000000000000000000000000000000000000000000000000008152600160a060020a03888116600483015260248201889052915191909216935063dc728f769250604480830192600092919082900301818387803b15801561095257600080fd5b505af1158015610966573d6000803e3d6000fd5b5050600254604080517f6a71a95900000000000000000000000000000000000000000000000000000000815260048101879052602481018690529051600160a060020a039092169350636a71a959925060448082019260009290919082900301818387803b1580156109d757600080fd5b505af11580156109eb573d6000803e3d6000fd5b505060408051600160a060020a03871681526020810186905280820185905290517fff6fa22822d34eaa852a4c7c1bf0ecb4187a9f2131ce7443224817d070e8131d9350908190036060019150a1505050565b600054600160a060020a03163314610a5557600080fd5b6002805473ffffffffffffffffffffffffffffffffffffffff1916600160a060020a0392909216919091179055565b600254604080517f6352211e000000000000000000000000000000000000000000000000000000008152600481018490529051600092600160a060020a031691636352211e91602480830192602092919082900301818787803b1580156102f957600080fd5b600254604080517fdd5d8393000000000000000000000000000000000000000000000000000000008152600160a060020a0385811660048301529151600093606093859391169163dd5d839391602480820192869290919082900301818387803b158015610b5757600080fd5b505af1158015610b6b573d6000803e3d6000fd5b505050506040513d6000823e601f3d908101601f191682016040526020811015610b9457600080fd5b810190808051640100000000811115610bac57600080fd5b82016020810184811115610bbf57600080fd5b8151856020820283011164010000000082111715610bdc57600080fd5b50508051909550935050508185109050610bf557600080fd5b8184815181101515610c0357fe5b906020019060200201519250505092915050565b600054600160a060020a031681565b600254604080517f778ebc75000000000000000000000000000000000000000000000000000000008152600481018490529051600092600160a060020a03169163778ebc7591602480830192602092919082900301818787803b1580156102f957600080fd5b6002546040805160e060020a63a05b7b6f028152600481018590529051600092339286928492600160a060020a03169163a05b7b6f91602480830192602092919082900301818a87803b158015610ce257600080fd5b505af1158015610cf6573d6000803e3d6000fd5b505050506040513d6020811015610d0c57600080fd5b5051600160a060020a03161480610d305750600054600160a060020a038381169116145b1515610d3b57600080fd5b600254604080517f778ebc750000000000000000000000000000000000000000000000000000000081526004810187905290518792600160a060020a03169163778ebc759160248083019260209291908290030181600087803b158015610da157600080fd5b505af1158015610db5573d6000803e3d6000fd5b505050506040513d6020811015610dcb57600080fd5b505114610dd757600080fd5b600254604080517f7a55ee88000000000000000000000000000000000000000000000000000000008152600481018790529051600160a060020a0390921691637a55ee88916024808201926020929091908290030181600087803b158015610e3e57600080fd5b505af1158015610e52573d6000803e3d6000fd5b505050506040513d6020811015610e6857600080fd5b5051600254604080517fd918348600000000000000000000000000000000000000000000000000000000815260048101899052602481018890529051929550600160a060020a039091169163d91834869160448082019260009290919082900301818387803b158015610eda57600080fd5b505af1158015610eee573d6000803e3d6000fd5b505060408051338152602081018990528082018890526060810187905290517f8f8299472a961503eabe36fc6fee154adc1e9dadf6aa0649fd9d2feb76a98f4e9350908190036080019150a15050505050565b6000805460609082908190600160a060020a03163314610f6057600080fd5b6002546040805160e060020a63a05b7b6f028152600481018890529051600160a060020a03808a1693169163a05b7b6f9160248083019260209291908290030181600087803b158015610fb257600080fd5b505af1158015610fc6573d6000803e3d6000fd5b505050506040513d6020811015610fdc57600080fd5b5051600160a060020a031614610ff157600080fd5b600254604080517f07e14091000000000000000000000000000000000000000000000000000000008152600481018890529051600160a060020a03909216916307e14091916024808201926020929091908290030181600087803b15801561105857600080fd5b505af115801561106c573d6000803e3d6000fd5b505050506040513d602081101561108257600080fd5b5051600254604080517fdd5d8393000000000000000000000000000000000000000000000000000000008152600160a060020a038a81166004830152915193975091169163dd5d83939160248082019260009290919082900301818387803b1580156110ed57600080fd5b505af1158015611101573d6000803e3d6000fd5b505050506040513d6000823e601f3d908101601f19168201604052602081101561112a57600080fd5b81019080805164010000000081111561114257600080fd5b8201602081018481111561115557600080fd5b815185602082028301116401000000008211171561117257600080fd5b5050805190965061118f935091506001905063ffffffff61165316565b9150828281518110151561119f57fe5b60209081029091010151600254604080517fe960ab7e000000000000000000000000000000000000000000000000000000008152600160a060020a038a811660048301526024820189905260448201859052915193945091169163e960ab7e9160648082019260009290919082900301818387803b15801561122057600080fd5b505af1158015611234573d6000803e3d6000fd5b5050600254604080517fe960ab7e000000000000000000000000000000000000000000000000000000008152600160a060020a038b811660048301526024820188905260006044830181905292519316945063e960ab7e93506064808201939182900301818387803b1580156112a957600080fd5b505af11580156112bd573d6000803e3d6000fd5b5050600254604080517f6a71a959000000000000000000000000000000000000000000000000000000008152600481018a90526000602482018190529151600160a060020a039093169450636a71a95993506044808201939182900301818387803b15801561132b57600080fd5b505af115801561133f573d6000803e3d6000fd5b5050600254604080517f6a71a95900000000000000000000000000000000000000000000000000000000815260048101869052602481018990529051600160a060020a039092169350636a71a959925060448082019260009290919082900301818387803b1580156113b057600080fd5b505af11580156113c4573d6000803e3d6000fd5b5050600254604080517f17f08c3c000000000000000000000000000000000000000000000000000000008152600481018a90526000602482018190529151600160a060020a0390931694506317f08c3c93506044808201939182900301818387803b15801561143257600080fd5b505af1158015611446573d6000803e3d6000fd5b505060408051600160a060020a038a1681526020810189905280820188905290517f71f7100268c7683c894f230d2d767a7fc9087d9465bbca088b0cb6ba1004882e9350908190036060019150a1505050505050565b600254604080517f07e14091000000000000000000000000000000000000000000000000000000008152600481018490529051600092600160a060020a0316916307e1409191602480830192602092919082900301818787803b1580156102f957600080fd5b600054600160a060020a0316331461151957600080fd5b600160a060020a038116151561152e57600080fd5b60008054604051600160a060020a03808516939216917f8be0079c531659141344cd1fd0a4f28419497f9722a3daafe3b4186f6b6457e091a36000805473ffffffffffffffffffffffffffffffffffffffff1916600160a060020a0392909216919091179055565b6002546040805160e060020a63a05b7b6f028152600481018490529051600092600160a060020a03169163a05b7b6f91602480830192602092919082900301818787803b1580156102f957600080fd5b600254604080517f961dd0940000000000000000000000000000000000000000000000000000000081526004810185905290516000926060928492600160a060020a039092169163961dd09491602480820192869290919082900301818387803b158015610b5757600080fd5b60008282111561165f57fe5b509003905600a165627a7a723058206ad340e1c3d626ac6356b2d261cc3a1ce305679ba7978bc8d36c45a578dd20f80029",
  "source": "pragma solidity ^0.4.21;\n\nimport \"./ownership/Ownable.sol\";\nimport \"./TurboPlayStorageInterface.sol\";\nimport \"./math/SafeMath.sol\";\n\ncontract TurboPlayRegistry is Ownable {\n\tusing SafeMath for uint256;\n\n\taddress storageAddress = 0x190d7484303eF6aD07A3D5625054808c2345E987;\n\n  TpStorageInterface TpEternalStorage = TpStorageInterface(storageAddress);\n\n\tevent AddedGamePublisher(address addr, uint256 gamesId, uint256 index);\n\tevent RemovedGamePublisher(address addr, uint256 gamesId, uint256 index);\n\n\tevent GameCopyCreated(address addr, uint256 gamesId, uint256 tokensId, uint256 index);\n\tevent GameCopyRemoved(address addr, uint256 gamesId, uint256 tokensId, uint256 index);\n\n\t// Check address is owner of Game Id\n\tmodifier onlyOwnerOrGamePublisher(address _gameDev, uint256 _gamesId) {\n\t\trequire(TpEternalStorage.getGamesIdToOwnerAddress(_gamesId) == _gameDev || _gameDev == owner);\n\t\t_;\n\t}\n\n\tfunction setStorageAddress(address _newStorageAddress) public onlyOwner {\n\t\tTpEternalStorage = TpStorageInterface(_newStorageAddress);\n\t}\n\n\t// Prevent ether transaction to contract\n\tfunction () public payable {\n\t\trevert();\n\t}\n\n\tfunction ownerOf(uint _tokensId) public view returns (address) {\n\t\treturn TpEternalStorage.ownerOf(_tokensId);\n\t}\n\n\tfunction gameIdByOwner(address _owner, uint256 _index) public view returns (uint256) {\n\t\tuint[] memory gameIdsFromOwner = TpEternalStorage.getOwnerToGamesIds(_owner);\n\t\tuint256 indexLength = gameIdsFromOwner.length;\n\t\trequire(_index < indexLength);\n\t\treturn gameIdsFromOwner[_index];\n\t}\n\n\tfunction gameIndexByGameId(uint256 _gamesId) public view returns (uint256) {\n\t\treturn TpEternalStorage.getGamesIdIndex(_gamesId);\n\t}\n\n\tfunction ownerByGameId(uint256 _gamesId) public view returns (address) {\n\t\treturn TpEternalStorage.getGamesIdToOwnerAddress(_gamesId);\n\t}\n\n\tfunction tokenIdByGameIdIndex(uint256 _gamesId, uint256 _tokenIndex) public view returns (uint256) {\n\t\tuint[] memory _tokenIds = TpEternalStorage.getGamesIdToTokensId(_gamesId);\n\t\tuint256 indexLength = _tokenIds.length;\n\t\trequire(_tokenIndex < indexLength);\n\t\treturn _tokenIds[_tokenIndex];\n\t}\n\n\tfunction tokenIndexByTokenId(uint256 _tokensId) public view returns (uint256) {\n\t\treturn TpEternalStorage.getTokensIdToTokensIdIndex(_tokensId);\n\t}\n\n\tfunction gameIdByTokenId(uint256 _tokensId) public view returns (uint256) {\n\t\treturn TpEternalStorage.getTokensIdToGamesId(_tokensId);\n\t}\n\n\n\tfunction addGamePublisher(address _gameDev, uint256 _gamesId) public onlyOwner {\n\t\trequire(TpEternalStorage.getGamesIdToOwnerAddress(_gamesId) == address(0));\n\n\t\tuint256 length = TpEternalStorage.getOwnerToGamesIds(_gameDev).length;\n\n\t\tTpEternalStorage.setGamesIdToOwnerAddress(_gamesId, _gameDev);\n\t\tTpEternalStorage.pushOwnerToGamesIds(_gameDev, _gamesId);\n\t\tTpEternalStorage.setGamesIdIndex(_gamesId, length);\n\n\t\temit AddedGamePublisher(_gameDev, _gamesId, length);\n\t}\n\n\tfunction removeGamePublisher(address _gameDev, uint256 _gamesId) public onlyOwner {\n\t\trequire(TpEternalStorage.getGamesIdToOwnerAddress(_gamesId) == _gameDev);\n\n\t\tuint256 gameIndex = TpEternalStorage.getGamesIdIndex(_gamesId);\n\t\tuint[] memory ownersGames = TpEternalStorage.getOwnerToGamesIds(_gameDev);\n\t\tuint256 lastGameIndex = ownersGames.length.sub(1);\n\t\tuint256 lastGame = ownersGames[lastGameIndex];\n\n\t\tTpEternalStorage.setOwnerToGamesIds(_gameDev, gameIndex, lastGame);\n\t\tTpEternalStorage.setOwnerToGamesIds(_gameDev, lastGameIndex, 0);\n\t\tTpEternalStorage.setGamesIdIndex(_gamesId, 0);\n\t\tTpEternalStorage.setGamesIdIndex(lastGame, gameIndex);\n\t\tTpEternalStorage.setGamesIdToOwnerAddress(_gamesId, address(0));\n\n\t\temit RemovedGamePublisher(_gameDev, _gamesId, gameIndex);\n\t}\n\n\n\tfunction mintGameCopy(uint256 _gamesId, uint256 _tokensId, uint _orderId) public onlyOwnerOrGamePublisher(msg.sender, _gamesId) {\n\t\trequire(TpEternalStorage.getTokensIdToGamesId(_tokensId) == 0, \"Token id has already been allocated.\");\n\n\t\tuint256 length = TpEternalStorage.getGamesIdToTokensId(_gamesId).length;\n\t\tTpEternalStorage.saveGameOrder(_orderId, _tokensId);\n\n\t\temit GameCopyCreated(msg.sender, _gamesId, _tokensId, length);\n\t}\n\n\tfunction burnGameCopy(uint256 _gamesId, uint256 _tokensId) public onlyOwnerOrGamePublisher(msg.sender, _gamesId) {\n\t\trequire(TpEternalStorage.getTokensIdToGamesId(_tokensId) == _gamesId);\n\n\t\tuint256 tokenIndex = TpEternalStorage.getTokensIdToTokensIdIndex(_tokensId);\n\t\tTpEternalStorage.saveBurnGame(_gamesId, _tokensId);\n\n\t\temit GameCopyRemoved(msg.sender, _gamesId, _tokensId, tokenIndex);\n\t}\n}\n",
  "sourcePath": "/Users/garmore/Clients/turboplay/turboplay-service/truffle/contracts/TurboPlayRegistry.sol",
  "compiler": {
    "name": "solc",
    "version": "0.4.24+commit.e67f0147.Emscripten.clang"
  },
  "schemaVersion": "2.0.0",
  "updatedAt": "2018-06-25T16:32:11.938Z"
}